{
  "_format": "hh-sol-artifact-1",
  "contractName": "ZkTruthProof",
  "sourceName": "contracts/ZkTruthProof.sol",
  "abi": [
    {
      "inputs": [],
      "stateMutability": "nonpayable",
      "type": "constructor"
    },
    {
      "inputs": [
        {
          "internalType": "bytes32",
          "name": "contentHash",
          "type": "bytes32"
        },
        {
          "internalType": "uint256",
          "name": "existingTokenId",
          "type": "uint256"
        }
      ],
      "name": "ContentAlreadyMinted",
      "type": "error"
    },
    {
      "inputs": [
        {
          "internalType": "address",
          "name": "sender",
          "type": "address"
        },
        {
          "internalType": "uint256",
          "name": "tokenId",
          "type": "uint256"
        },
        {
          "internalType": "address",
          "name": "owner",
          "type": "address"
        }
      ],
      "name": "ERC721IncorrectOwner",
      "type": "error"
    },
    {
      "inputs": [
        {
          "internalType": "address",
          "name": "operator",
          "type": "address"
        },
        {
          "internalType": "uint256",
          "name": "tokenId",
          "type": "uint256"
        }
      ],
      "name": "ERC721InsufficientApproval",
      "type": "error"
    },
    {
      "inputs": [
        {
          "internalType": "address",
          "name": "approver",
          "type": "address"
        }
      ],
      "name": "ERC721InvalidApprover",
      "type": "error"
    },
    {
      "inputs": [
        {
          "internalType": "address",
          "name": "operator",
          "type": "address"
        }
      ],
      "name": "ERC721InvalidOperator",
      "type": "error"
    },
    {
      "inputs": [
        {
          "internalType": "address",
          "name": "owner",
          "type": "address"
        }
      ],
      "name": "ERC721InvalidOwner",
      "type": "error"
    },
    {
      "inputs": [
        {
          "internalType": "address",
          "name": "receiver",
          "type": "address"
        }
      ],
      "name": "ERC721InvalidReceiver",
      "type": "error"
    },
    {
      "inputs": [
        {
          "internalType": "address",
          "name": "sender",
          "type": "address"
        }
      ],
      "name": "ERC721InvalidSender",
      "type": "error"
    },
    {
      "inputs": [
        {
          "internalType": "uint256",
          "name": "tokenId",
          "type": "uint256"
        }
      ],
      "name": "ERC721NonexistentToken",
      "type": "error"
    },
    {
      "inputs": [
        {
          "internalType": "uint256",
          "name": "required",
          "type": "uint256"
        },
        {
          "internalType": "uint256",
          "name": "sent",
          "type": "uint256"
        }
      ],
      "name": "InsufficientFee",
      "type": "error"
    },
    {
      "inputs": [],
      "name": "InvalidContentHash",
      "type": "error"
    },
    {
      "inputs": [
        {
          "internalType": "bytes32",
          "name": "nullifierHash",
          "type": "bytes32"
        }
      ],
      "name": "NullifierAlreadyUsed",
      "type": "error"
    },
    {
      "inputs": [
        {
          "internalType": "address",
          "name": "owner",
          "type": "address"
        }
      ],
      "name": "OwnableInvalidOwner",
      "type": "error"
    },
    {
      "inputs": [
        {
          "internalType": "address",
          "name": "account",
          "type": "address"
        }
      ],
      "name": "OwnableUnauthorizedAccount",
      "type": "error"
    },
    {
      "anonymous": false,
      "inputs": [
        {
          "indexed": true,
          "internalType": "address",
          "name": "owner",
          "type": "address"
        },
        {
          "indexed": true,
          "internalType": "address",
          "name": "approved",
          "type": "address"
        },
        {
          "indexed": true,
          "internalType": "uint256",
          "name": "tokenId",
          "type": "uint256"
        }
      ],
      "name": "Approval",
      "type": "event"
    },
    {
      "anonymous": false,
      "inputs": [
        {
          "indexed": true,
          "internalType": "address",
          "name": "owner",
          "type": "address"
        },
        {
          "indexed": true,
          "internalType": "address",
          "name": "operator",
          "type": "address"
        },
        {
          "indexed": false,
          "internalType": "bool",
          "name": "approved",
          "type": "bool"
        }
      ],
      "name": "ApprovalForAll",
      "type": "event"
    },
    {
      "anonymous": false,
      "inputs": [
        {
          "indexed": false,
          "internalType": "uint256",
          "name": "newFee",
          "type": "uint256"
        }
      ],
      "name": "MintFeeUpdated",
      "type": "event"
    },
    {
      "anonymous": false,
      "inputs": [
        {
          "indexed": true,
          "internalType": "address",
          "name": "previousOwner",
          "type": "address"
        },
        {
          "indexed": true,
          "internalType": "address",
          "name": "newOwner",
          "type": "address"
        }
      ],
      "name": "OwnershipTransferred",
      "type": "event"
    },
    {
      "anonymous": false,
      "inputs": [
        {
          "indexed": true,
          "internalType": "uint256",
          "name": "tokenId",
          "type": "uint256"
        },
        {
          "indexed": true,
          "internalType": "address",
          "name": "minter",
          "type": "address"
        },
        {
          "indexed": false,
          "internalType": "bytes32",
          "name": "contentHash",
          "type": "bytes32"
        },
        {
          "indexed": false,
          "internalType": "uint8",
          "name": "verificationLevel",
          "type": "uint8"
        },
        {
          "indexed": false,
          "internalType": "uint8",
          "name": "mediaType",
          "type": "uint8"
        },
        {
          "indexed": false,
          "internalType": "uint256",
          "name": "timestamp",
          "type": "uint256"
        }
      ],
      "name": "ProofMinted",
      "type": "event"
    },
    {
      "anonymous": false,
      "inputs": [
        {
          "indexed": true,
          "internalType": "address",
          "name": "from",
          "type": "address"
        },
        {
          "indexed": true,
          "internalType": "address",
          "name": "to",
          "type": "address"
        },
        {
          "indexed": true,
          "internalType": "uint256",
          "name": "tokenId",
          "type": "uint256"
        }
      ],
      "name": "Transfer",
      "type": "event"
    },
    {
      "inputs": [
        {
          "internalType": "address",
          "name": "to",
          "type": "address"
        },
        {
          "internalType": "uint256",
          "name": "tokenId",
          "type": "uint256"
        }
      ],
      "name": "approve",
      "outputs": [],
      "stateMutability": "nonpayable",
      "type": "function"
    },
    {
      "inputs": [
        {
          "internalType": "address",
          "name": "owner",
          "type": "address"
        }
      ],
      "name": "balanceOf",
      "outputs": [
        {
          "internalType": "uint256",
          "name": "",
          "type": "uint256"
        }
      ],
      "stateMutability": "view",
      "type": "function"
    },
    {
      "inputs": [
        {
          "internalType": "bytes32",
          "name": "",
          "type": "bytes32"
        }
      ],
      "name": "contentHashToTokenId",
      "outputs": [
        {
          "internalType": "uint256",
          "name": "",
          "type": "uint256"
        }
      ],
      "stateMutability": "view",
      "type": "function"
    },
    {
      "inputs": [
        {
          "internalType": "uint256",
          "name": "tokenId",
          "type": "uint256"
        }
      ],
      "name": "getApproved",
      "outputs": [
        {
          "internalType": "address",
          "name": "",
          "type": "address"
        }
      ],
      "stateMutability": "view",
      "type": "function"
    },
    {
      "inputs": [
        {
          "internalType": "uint256",
          "name": "tokenId",
          "type": "uint256"
        }
      ],
      "name": "getProof",
      "outputs": [
        {
          "components": [
            {
              "internalType": "bytes32",
              "name": "contentHash",
              "type": "bytes32"
            },
            {
              "internalType": "bytes32",
              "name": "gpsHash",
              "type": "bytes32"
            },
            {
              "internalType": "bytes32",
              "name": "nullifierHash",
              "type": "bytes32"
            },
            {
              "internalType": "uint256",
              "name": "timestamp",
              "type": "uint256"
            },
            {
              "internalType": "uint8",
              "name": "verificationLevel",
              "type": "uint8"
            },
            {
              "internalType": "uint8",
              "name": "mediaType",
              "type": "uint8"
            }
          ],
          "internalType": "struct ZkTruthProof.CaptureProof",
          "name": "",
          "type": "tuple"
        }
      ],
      "stateMutability": "view",
      "type": "function"
    },
    {
      "inputs": [
        {
          "internalType": "address",
          "name": "owner",
          "type": "address"
        },
        {
          "internalType": "address",
          "name": "operator",
          "type": "address"
        }
      ],
      "name": "isApprovedForAll",
      "outputs": [
        {
          "internalType": "bool",
          "name": "",
          "type": "bool"
        }
      ],
      "stateMutability": "view",
      "type": "function"
    },
    {
      "inputs": [
        {
          "internalType": "bytes32",
          "name": "contentHash",
          "type": "bytes32"
        },
        {
          "internalType": "bytes32",
          "name": "gpsHash",
          "type": "bytes32"
        },
        {
          "internalType": "uint256",
          "name": "captureTimestamp",
          "type": "uint256"
        },
        {
          "internalType": "uint8",
          "name": "mediaType",
          "type": "uint8"
        }
      ],
      "name": "mintUnverifiedProof",
      "outputs": [
        {
          "internalType": "uint256",
          "name": "",
          "type": "uint256"
        }
      ],
      "stateMutability": "payable",
      "type": "function"
    },
    {
      "inputs": [
        {
          "internalType": "bytes32",
          "name": "contentHash",
          "type": "bytes32"
        },
        {
          "internalType": "bytes32",
          "name": "gpsHash",
          "type": "bytes32"
        },
        {
          "internalType": "bytes32",
          "name": "nullifierHash",
          "type": "bytes32"
        },
        {
          "internalType": "uint256",
          "name": "captureTimestamp",
          "type": "uint256"
        },
        {
          "internalType": "uint8",
          "name": "mediaType",
          "type": "uint8"
        }
      ],
      "name": "mintVerifiedProof",
      "outputs": [
        {
          "internalType": "uint256",
          "name": "",
          "type": "uint256"
        }
      ],
      "stateMutability": "nonpayable",
      "type": "function"
    },
    {
      "inputs": [],
      "name": "name",
      "outputs": [
        {
          "internalType": "string",
          "name": "",
          "type": "string"
        }
      ],
      "stateMutability": "view",
      "type": "function"
    },
    {
      "inputs": [
        {
          "internalType": "bytes32",
          "name": "",
          "type": "bytes32"
        }
      ],
      "name": "nullifierUsed",
      "outputs": [
        {
          "internalType": "bool",
          "name": "",
          "type": "bool"
        }
      ],
      "stateMutability": "view",
      "type": "function"
    },
    {
      "inputs": [],
      "name": "owner",
      "outputs": [
        {
          "internalType": "address",
          "name": "",
          "type": "address"
        }
      ],
      "stateMutability": "view",
      "type": "function"
    },
    {
      "inputs": [
        {
          "internalType": "uint256",
          "name": "tokenId",
          "type": "uint256"
        }
      ],
      "name": "ownerOf",
      "outputs": [
        {
          "internalType": "address",
          "name": "",
          "type": "address"
        }
      ],
      "stateMutability": "view",
      "type": "function"
    },
    {
      "inputs": [
        {
          "internalType": "uint256",
          "name": "",
          "type": "uint256"
        }
      ],
      "name": "proofs",
      "outputs": [
        {
          "internalType": "bytes32",
          "name": "contentHash",
          "type": "bytes32"
        },
        {
          "internalType": "bytes32",
          "name": "gpsHash",
          "type": "bytes32"
        },
        {
          "internalType": "bytes32",
          "name": "nullifierHash",
          "type": "bytes32"
        },
        {
          "internalType": "uint256",
          "name": "timestamp",
          "type": "uint256"
        },
        {
          "internalType": "uint8",
          "name": "verificationLevel",
          "type": "uint8"
        },
        {
          "internalType": "uint8",
          "name": "mediaType",
          "type": "uint8"
        }
      ],
      "stateMutability": "view",
      "type": "function"
    },
    {
      "inputs": [],
      "name": "renounceOwnership",
      "outputs": [],
      "stateMutability": "nonpayable",
      "type": "function"
    },
    {
      "inputs": [
        {
          "internalType": "address",
          "name": "from",
          "type": "address"
        },
        {
          "internalType": "address",
          "name": "to",
          "type": "address"
        },
        {
          "internalType": "uint256",
          "name": "tokenId",
          "type": "uint256"
        }
      ],
      "name": "safeTransferFrom",
      "outputs": [],
      "stateMutability": "nonpayable",
      "type": "function"
    },
    {
      "inputs": [
        {
          "internalType": "address",
          "name": "from",
          "type": "address"
        },
        {
          "internalType": "address",
          "name": "to",
          "type": "address"
        },
        {
          "internalType": "uint256",
          "name": "tokenId",
          "type": "uint256"
        },
        {
          "internalType": "bytes",
          "name": "data",
          "type": "bytes"
        }
      ],
      "name": "safeTransferFrom",
      "outputs": [],
      "stateMutability": "nonpayable",
      "type": "function"
    },
    {
      "inputs": [
        {
          "internalType": "address",
          "name": "operator",
          "type": "address"
        },
        {
          "internalType": "bool",
          "name": "approved",
          "type": "bool"
        }
      ],
      "name": "setApprovalForAll",
      "outputs": [],
      "stateMutability": "nonpayable",
      "type": "function"
    },
    {
      "inputs": [
        {
          "internalType": "uint256",
          "name": "newFee",
          "type": "uint256"
        }
      ],
      "name": "setUnverifiedMintFee",
      "outputs": [],
      "stateMutability": "nonpayable",
      "type": "function"
    },
    {
      "inputs": [
        {
          "internalType": "bytes4",
          "name": "interfaceId",
          "type": "bytes4"
        }
      ],
      "name": "supportsInterface",
      "outputs": [
        {
          "internalType": "bool",
          "name": "",
          "type": "bool"
        }
      ],
      "stateMutability": "view",
      "type": "function"
    },
    {
      "inputs": [],
      "name": "symbol",
      "outputs": [
        {
          "internalType": "string",
          "name": "",
          "type": "string"
        }
      ],
      "stateMutability": "view",
      "type": "function"
    },
    {
      "inputs": [
        {
          "internalType": "uint256",
          "name": "tokenId",
          "type": "uint256"
        }
      ],
      "name": "tokenURI",
      "outputs": [
        {
          "internalType": "string",
          "name": "",
          "type": "string"
        }
      ],
      "stateMutability": "view",
      "type": "function"
    },
    {
      "inputs": [],
      "name": "totalSupply",
      "outputs": [
        {
          "internalType": "uint256",
          "name": "",
          "type": "uint256"
        }
      ],
      "stateMutability": "view",
      "type": "function"
    },
    {
      "inputs": [
        {
          "internalType": "address",
          "name": "from",
          "type": "address"
        },
        {
          "internalType": "address",
          "name": "to",
          "type": "address"
        },
        {
          "internalType": "uint256",
          "name": "tokenId",
          "type": "uint256"
        }
      ],
      "name": "transferFrom",
      "outputs": [],
      "stateMutability": "nonpayable",
      "type": "function"
    },
    {
      "inputs": [
        {
          "internalType": "address",
          "name": "newOwner",
          "type": "address"
        }
      ],
      "name": "transferOwnership",
      "outputs": [],
      "stateMutability": "nonpayable",
      "type": "function"
    },
    {
      "inputs": [],
      "name": "unverifiedMintFee",
      "outputs": [
        {
          "internalType": "uint256",
          "name": "",
          "type": "uint256"
        }
      ],
      "stateMutability": "view",
      "type": "function"
    },
    {
      "inputs": [
        {
          "internalType": "bytes32",
          "name": "contentHash",
          "type": "bytes32"
        }
      ],
      "name": "verifyContent",
      "outputs": [
        {
          "internalType": "uint256",
          "name": "",
          "type": "uint256"
        }
      ],
      "stateMutability": "view",
      "type": "function"
    },
    {
      "inputs": [],
      "name": "withdraw",
      "outputs": [],
      "stateMutability": "nonpayable",
      "type": "function"
    }
  ],
  "bytecode": "0x608060405234801561000f575f5ffd5b50336040518060400160405280601881526020017f7a6b54727574682050726f6f66206f6620436170747572650000000000000000815250604051806040016040528060078152602001662d25a82927a7a360c91b815250815f908161007591906101b3565b50600161008282826101b3565b5050506001600160a01b0381166100b257604051631e4fbdf760e01b81525f600482015260240160405180910390fd5b6100bb816100ca565b5060016007555f600b5561026d565b600680546001600160a01b038381166001600160a01b0319831681179093556040519116919082907f8be0079c531659141344cd1fd0a4f28419497f9722a3daafe3b4186f6b6457e0905f90a35050565b634e487b7160e01b5f52604160045260245ffd5b600181811c9082168061014357607f821691505b60208210810361016157634e487b7160e01b5f52602260045260245ffd5b50919050565b601f8211156101ae57805f5260205f20601f840160051c8101602085101561018c5750805b601f840160051c820191505b818110156101ab575f8155600101610198565b50505b505050565b81516001600160401b038111156101cc576101cc61011b565b6101e0816101da845461012f565b84610167565b6020601f821160018114610212575f83156101fb5750848201515b5f19600385901b1c1916600184901b1784556101ab565b5f84815260208120601f198516915b828110156102415787850151825560209485019460019092019101610221565b508482101561025e57868401515f19600387901b60f8161c191681555b50505050600190811b01905550565b611a208061027a5f395ff3fe608060405260043610610195575f3560e01c8063715018a6116100e7578063b7ab61bd11610087578063e985e9c511610062578063e985e9c51461053d578063f2fde38b1461055c578063f8c486e81461057b578063f95b09d51461058e575f5ffd5b8063b7ab61bd146104ea578063b88d4fde146104ff578063c87b56dd1461051e575f5ffd5b80638da5cb5b116100c25780638da5cb5b1461041357806395d89b41146104305780639ddaf5aa14610444578063a22cb465146104cb575f5ffd5b8063715018a6146103b25780637ba393f3146103c65780637ecf686d146103e5575f5ffd5b806323b872dd11610152578063430fe7591161012d578063430fe7591461032a5780634d73ed83146103555780636352211e1461037457806370a0823114610393575f5ffd5b806323b872dd146102d85780633ccfd60b146102f757806342842e0e1461030b575f5ffd5b806301ffc9a71461019957806306fdde03146101cd578063081812fc146101ee578063095ea7b31461022557806311149ada1461024657806318160ddd146102b6575b5f5ffd5b3480156101a4575f5ffd5b506101b86101b33660046115fd565b6105b9565b60405190151581526020015b60405180910390f35b3480156101d8575f5ffd5b506101e161060a565b6040516101c49190611646565b3480156101f9575f5ffd5b5061020d610208366004611658565b610699565b6040516001600160a01b0390911681526020016101c4565b348015610230575f5ffd5b5061024461023f36600461168a565b6106c0565b005b348015610251575f5ffd5b50610265610260366004611658565b6106cf565b6040516101c491905f60c0820190508251825260208301516020830152604083015160408301526060830151606083015260ff608084015116608083015260ff60a08401511660a083015292915050565b3480156102c1575f5ffd5b506102ca6107bf565b6040519081526020016101c4565b3480156102e3575f5ffd5b506102446102f23660046116b2565b6107d4565b348015610302575f5ffd5b5061024461085d565b348015610316575f5ffd5b506102446103253660046116b2565b61094e565b348015610335575f5ffd5b506102ca610344366004611658565b5f9081526009602052604090205490565b348015610360575f5ffd5b506102ca61036f3660046116fc565b61096d565b34801561037f575f5ffd5b5061020d61038e366004611658565b610b31565b34801561039e575f5ffd5b506102ca6103ad366004611741565b610b3b565b3480156103bd575f5ffd5b50610244610b80565b3480156103d1575f5ffd5b506102446103e0366004611658565b610b93565b3480156103f0575f5ffd5b506101b86103ff366004611658565b600a6020525f908152604090205460ff1681565b34801561041e575f5ffd5b506006546001600160a01b031661020d565b34801561043b575f5ffd5b506101e1610bd6565b34801561044f575f5ffd5b5061049861045e366004611658565b60086020525f9081526040902080546001820154600283015460038401546004909401549293919290919060ff8082169161010090041686565b60408051968752602087019590955293850192909252606084015260ff90811660808401521660a082015260c0016101c4565b3480156104d6575f5ffd5b506102446104e536600461175a565b610be5565b3480156104f5575f5ffd5b506102ca600b5481565b34801561050a575f5ffd5b506102446105193660046117a7565b610bf0565b348015610529575f5ffd5b506101e1610538366004611658565b610c08565b348015610548575f5ffd5b506101b8610557366004611884565b610c79565b348015610567575f5ffd5b50610244610576366004611741565b610ca6565b6102ca6105893660046118b5565b610ce3565b348015610599575f5ffd5b506102ca6105a8366004611658565b60096020525f908152604090205481565b5f6001600160e01b031982166380ac58cd60e01b14806105e957506001600160e01b03198216635b5e139f60e01b145b8061060457506301ffc9a760e01b6001600160e01b03198316145b92915050565b60605f8054610618906118f1565b80601f0160208091040260200160405190810160405280929190818152602001828054610644906118f1565b801561068f5780601f106106665761010080835404028352916020019161068f565b820191905f5260205f20905b81548152906001019060200180831161067257829003601f168201915b5050505050905090565b5f6106a382610e80565b505f828152600460205260409020546001600160a01b0316610604565b6106cb828233610eb8565b5050565b6107086040518060c001604052805f81526020015f81526020015f81526020015f81526020015f60ff1681526020015f60ff1681525090565b5f82118015610718575060075482105b6107605760405162461bcd60e51b8152602060048201526014602482015273151bdad95b88191bd95cc81b9bdd08195e1a5cdd60621b60448201526064015b60405180910390fd5b505f90815260086020908152604091829020825160c081018452815481526001820154928101929092526002810154928201929092526003820154606082015260049091015460ff80821660808401526101009091041660a082015290565b5f60016007546107cf919061193d565b905090565b6001600160a01b0382166107fd57604051633250574960e11b81525f6004820152602401610757565b5f610809838333610ec5565b9050836001600160a01b0316816001600160a01b031614610857576040516364283d7b60e01b81526001600160a01b0380861660048301526024820184905282166044820152606401610757565b50505050565b610865610fb7565b47806108ac5760405162461bcd60e51b81526020600482015260166024820152754e6f2062616c616e636520746f20776974686472617760501b6044820152606401610757565b5f6108bf6006546001600160a01b031690565b6001600160a01b0316826040515f6040518083038185875af1925050503d805f8114610906576040519150601f19603f3d011682016040523d82523d5f602084013e61090b565b606091505b50509050806106cb5760405162461bcd60e51b815260206004820152600f60248201526e15da5d1a191c985dc819985a5b1959608a1b6044820152606401610757565b61096883838360405180602001604052805f815250610bf0565b505050565b5f8561098c576040516368e1d61b60e01b815260040160405180910390fd5b5f86815260096020526040902054156109d2575f868152600960205260409081902054905163040f7c6760e51b8152610757918891600401918252602082015260400190565b83158015906109ee57505f848152600a602052604090205460ff165b15610a0f57604051632920f74160e21b815260048101859052602401610757565b600780545f9182610a1f83611950565b919050559050610a2f3382610fe4565b6040805160c08101825288815260208082018981528284018981526060840189815260026080860181815260ff8b811660a089019081525f8b8152600889528a812099518a55965160018a015594519288019290925591516003870155905160049095018054925182166101000261ffff1990931695909116949094171790925589825260099052208190558415610ada575f858152600a60205260409020805460ff191660011790555b604080518881526002602082015260ff851681830152606081018690529051339183917f15abb86d06b493bcd690cfe5bd82471482093b88e311b49ad59f64c3b828f7409181900360800190a39695505050505050565b5f61060482610e80565b5f6001600160a01b038216610b65576040516322718ad960e21b81525f6004820152602401610757565b506001600160a01b03165f9081526003602052604090205490565b610b88610fb7565b610b915f610ffd565b565b610b9b610fb7565b600b8190556040518181527f38fbb1c8b109c430f0c030e7ed076cf5611a307773a4e8e365601e8f8bceaec69060200160405180910390a150565b606060018054610618906118f1565b6106cb33838361104e565b610bfb8484846107d4565b6108573385858585611115565b6060610c1382610e80565b505f610c2960408051602081019091525f815290565b90505f815111610c475760405180602001604052805f815250610c72565b80610c518461123d565b604051602001610c6292919061197f565b6040516020818303038152906040525b9392505050565b6001600160a01b039182165f90815260056020908152604080832093909416825291909152205460ff1690565b610cae610fb7565b6001600160a01b038116610cd757604051631e4fbdf760e01b81525f6004820152602401610757565b610ce081610ffd565b50565b5f84610d02576040516368e1d61b60e01b815260040160405180910390fd5b5f8581526009602052604090205415610d48575f858152600960205260409081902054905163040f7c6760e51b8152610757918791600401918252602082015260400190565b5f600b54118015610d5a5750600b5434105b15610d8557600b5460405163a458261b60e01b81526004810191909152346024820152604401610757565b600780545f9182610d9583611950565b919050559050610da53382610fe4565b6040805160c08101825287815260208082018881525f83850181815260608086018b8152608080880185815260ff8d811660a08b018181528d895260088b528c89209b518c55985160018c0155955160028b0155925160038a01555160049098018054965183166101000261ffff199097169890921697909717949094179093558b82526009845285822087905585518c8152938401919091528285015281018790529151339284927f15abb86d06b493bcd690cfe5bd82471482093b88e311b49ad59f64c3b828f74092918290030190a395945050505050565b5f818152600260205260408120546001600160a01b03168061060457604051637e27328960e01b815260048101849052602401610757565b61096883838360016112cd565b5f828152600260205260408120546001600160a01b0390811690831615610ef157610ef18184866113d1565b6001600160a01b03811615610f2b57610f0c5f855f5f6112cd565b6001600160a01b0381165f90815260036020526040902080545f190190555b6001600160a01b03851615610f59576001600160a01b0385165f908152600360205260409020805460010190555b5f8481526002602052604080822080546001600160a01b0319166001600160a01b0389811691821790925591518793918516917fddf252ad1be2c89b69c2b068fc378daa952ba7f163c4a11628f55a4df523b3ef91a4949350505050565b6006546001600160a01b03163314610b915760405163118cdaa760e01b8152336004820152602401610757565b6106cb828260405180602001604052805f815250611435565b600680546001600160a01b038381166001600160a01b0319831681179093556040519116919082907f8be0079c531659141344cd1fd0a4f28419497f9722a3daafe3b4186f6b6457e0905f90a35050565b6001600160a01b0383166110775760405163a9fbf51f60e01b81525f6004820152602401610757565b6001600160a01b0382166110a957604051630b61174360e31b81526001600160a01b0383166004820152602401610757565b6001600160a01b038381165f81815260056020908152604080832094871680845294825291829020805460ff191686151590811790915591519182527f17307eab39ab6107e8899845ad3d59bd9653f200f220920489ca2b5937696c31910160405180910390a3505050565b6001600160a01b0383163b1561123657604051630a85bd0160e11b81526001600160a01b0384169063150b7a0290611157908890889087908790600401611993565b6020604051808303815f875af1925050508015611191575060408051601f3d908101601f1916820190925261118e918101906119cf565b60015b6111f8573d8080156111be576040519150601f19603f3d011682016040523d82523d5f602084013e6111c3565b606091505b5080515f036111f057604051633250574960e11b81526001600160a01b0385166004820152602401610757565b805160208201fd5b6001600160e01b03198116630a85bd0160e11b1461123457604051633250574960e11b81526001600160a01b0385166004820152602401610757565b505b5050505050565b60605f6112498361144c565b60010190505f8167ffffffffffffffff81111561126857611268611793565b6040519080825280601f01601f191660200182016040528015611292576020820181803683370190505b5090508181016020015b5f19016f181899199a1a9b1b9c1cb0b131b232b360811b600a86061a8153600a850494508461129c57509392505050565b80806112e157506001600160a01b03821615155b156113a2575f6112f084610e80565b90506001600160a01b0383161580159061131c5750826001600160a01b0316816001600160a01b031614155b801561132f575061132d8184610c79565b155b156113585760405163a9fbf51f60e01b81526001600160a01b0384166004820152602401610757565b81156113a05783856001600160a01b0316826001600160a01b03167f8c5be1e5ebec7d5bd14f71427d1e84f3dd0314c0f7b2291e5b200ac8c7c3b92560405160405180910390a45b505b50505f90815260046020526040902080546001600160a01b0319166001600160a01b0392909216919091179055565b6113dc838383611523565b610968576001600160a01b03831661140a57604051637e27328960e01b815260048101829052602401610757565b60405163177e802f60e01b81526001600160a01b038316600482015260248101829052604401610757565b61143f8383611587565b610968335f858585611115565b5f8072184f03e93ff9f4daa797ed6e38ed64bf6a1f0160401b831061148a5772184f03e93ff9f4daa797ed6e38ed64bf6a1f0160401b830492506040015b6d04ee2d6d415b85acef810000000083106114b6576d04ee2d6d415b85acef8100000000830492506020015b662386f26fc1000083106114d457662386f26fc10000830492506010015b6305f5e10083106114ec576305f5e100830492506008015b612710831061150057612710830492506004015b60648310611512576064830492506002015b600a83106106045760010192915050565b5f6001600160a01b0383161580159061157f5750826001600160a01b0316846001600160a01b0316148061155c575061155c8484610c79565b8061157f57505f828152600460205260409020546001600160a01b038481169116145b949350505050565b6001600160a01b0382166115b057604051633250574960e11b81525f6004820152602401610757565b5f6115bc83835f610ec5565b90506001600160a01b03811615610968576040516339e3563760e11b81525f6004820152602401610757565b6001600160e01b031981168114610ce0575f5ffd5b5f6020828403121561160d575f5ffd5b8135610c72816115e8565b5f81518084528060208401602086015e5f602082860101526020601f19601f83011685010191505092915050565b602081525f610c726020830184611618565b5f60208284031215611668575f5ffd5b5035919050565b80356001600160a01b0381168114611685575f5ffd5b919050565b5f5f6040838503121561169b575f5ffd5b6116a48361166f565b946020939093013593505050565b5f5f5f606084860312156116c4575f5ffd5b6116cd8461166f565b92506116db6020850161166f565b929592945050506040919091013590565b803560ff81168114611685575f5ffd5b5f5f5f5f5f60a08688031215611710575f5ffd5b85359450602086013593506040860135925060608601359150611735608087016116ec565b90509295509295909350565b5f60208284031215611751575f5ffd5b610c728261166f565b5f5f6040838503121561176b575f5ffd5b6117748361166f565b915060208301358015158114611788575f5ffd5b809150509250929050565b634e487b7160e01b5f52604160045260245ffd5b5f5f5f5f608085870312156117ba575f5ffd5b6117c38561166f565b93506117d16020860161166f565b925060408501359150606085013567ffffffffffffffff8111156117f3575f5ffd5b8501601f81018713611803575f5ffd5b803567ffffffffffffffff81111561181d5761181d611793565b604051601f8201601f19908116603f0116810167ffffffffffffffff8111828210171561184c5761184c611793565b604052818152828201602001891015611863575f5ffd5b816020840160208301375f6020838301015280935050505092959194509250565b5f5f60408385031215611895575f5ffd5b61189e8361166f565b91506118ac6020840161166f565b90509250929050565b5f5f5f5f608085870312156118c8575f5ffd5b8435935060208501359250604085013591506118e6606086016116ec565b905092959194509250565b600181811c9082168061190557607f821691505b60208210810361192357634e487b7160e01b5f52602260045260245ffd5b50919050565b634e487b7160e01b5f52601160045260245ffd5b8181038181111561060457610604611929565b5f6001820161196157611961611929565b5060010190565b5f81518060208401855e5f93019283525090919050565b5f61157f61198d8386611968565b84611968565b6001600160a01b03858116825284166020820152604081018390526080606082018190525f906119c590830184611618565b9695505050505050565b5f602082840312156119df575f5ffd5b8151610c72816115e856fea26469706673582212207012cf4d253e8256e218fdaaeb05037aae52c0b53fbd11fd8b0f7dd29cc8353764736f6c634300081c0033",
  "linkReferences": {},
  "deployedLinkReferences": {}
}